:020000040800F2
:1000000088060020151A00086D1000086F100008FF
:1000100073100008771000087B1000080000000033
:100020000000000000000000000000007F10000839
:1000300081100008000000008310000885100008EF
:100040002F1A00082F1A00082F1A00082F1A00086C
:100050002F1A00082F1A00082F1A00082F1A00085C
:100060002F1A00082F1A00082F1A00082F1A00084C
:100070002F1A00082F1A00082F1A00082F1A00083C
:100080002F1A00082F1A00082F1A00082F1A00082C
:100090002F1A00082F1A00082F1A00082F1A00081C
:1000A0002F1A00082F1A00082F1A00082F1A00080C
:1000B0002F1A00082F1A00082F1A00082F1A0008FC
:1000C0002F1A00082F1A00082F1A00082F1A0008EC
:1000D0002F1A00082F1A00082F1A00082F1A0008DC
:1000E0002F1A00082F1A00082F1A00082F1A0008CC
:1000F0002F1A00082F1A00082F1A00082F1A0008BC
:100100002F1A00082F1A00082F1A00082F1A0008AB
:100110002F1A00082F1A00082F1A00082F1A00089B
:100120002F1A00082F1A00082F1A00082F1A00088B
:1001300000F002F800F03AF80AA090E8000C8244BF
:100140008344AAF10107DA4501D100F02FF8AFF29C
:10015000090EBAE80F0013F0010F18BFFB1A43F0A5
:10016000010318476419000084190000103A24BFE5
:1001700078C878C1FAD8520724BF30C830C144BF0C
:1001800004680C607047000000230024002500264E
:10019000103A28BF78C1FBD8520728BF30C148BFEA
:1001A0000B6070471FB51FBD10B510BD01F055FCA9
:1001B0001146FFF7F7FF00F054FD01F073FC03B4A4
:1001C000FFF7F2FF03BC01F077FC000010B5044616
:1001D000592C6FD2DFE804F06E2D32373D43484D85
:1001E00052575C62686F757B81878D92979CA1A640
:1001F000ABF0F5FBECEBEAE9E8E7E6E5E4E3E2E1A6
:10020000E0DFDEDDDCDBDAD9D8D7D6D5D4D3D2D166
:10021000D0CFCECDCCCBCAC9C8C7C6C5C4C3C2C156
:10022000C0BFBEBDBCBBBAB9B8B7B6B5B4B3B2B146
:10023000B0000121F94800F078FE2AE20221F748D7
:1002400000F073FE25E24FF40061F44800F06DFE0B
:100250001FE24FF48051F14800F067FE19E20121DE
:10026000EF4800F062FE14E20221ED4800F05DFE6E
:100270000FE22021EA4800F058FE0AE24021E84857
:1002800000F053FE05E28021E54800F04EFE00E25A
:100290004FF48071E24800F048FEFAE14FF400713B
:1002A000DF4800F042FEF4E14FF48061DC4800F0EA
:1002B0003CFEEEE1ECE14FF40061D94800F035FE80
:1002C000E7E14FF48051D64800F02FFEE1E14FF412
:1002D0000051D34800F029FEDBE14FF48041D048C3
:1002E00000F023FED5E14FF40041CD4800F01DFEA3
:1002F000CFE10121CB4800F018FECAE10221C94834
:1003000000F013FEC5E10421C64800F00EFEC0E176
:100310000821C44800F009FEBBE11021C14800F0EB
:1003200004FEB6E12021BF4800F0FFFDB1E140210D
:10033000BC4800F0FAFDACE1A4E19EE198E192E155
:100340008CE186E180E17AE174E160E159E152E11A
:100350004BE144E13DE136E12FE129E123E11DE1FB
:1003600017E111E10BE105E1FFE0F8E0F1E0EAE07F
:10037000E3E0DCE0D5E0CEE0C7E0C1E0BBE0B5E023
:10038000AFE0A9E0A3E09DE097E090E089E082E0A3
:100390007BE074E06DE066E05FE059E053E04DE043
:1003A00047E041E03BE035E02FE028E021E01AE0C3
:1003B00013E00CE005E0FFE780219A4800F0B5FD6E
:1003C00067E14FF48071974800F0AFFD61E14FF4B1
:1003D0000071944800F0A9FD5BE14FF48061914801
:1003E00000F0A3FD55E14FF400618E4800F09DFD43
:1003F0004FE14FF480518B4800F097FD49E14FF4F5
:100400000051884800F091FD43E10121864800F049
:100410008CFD3EE10221844800F087FD39E1042192
:10042000814800F082FD34E108217F4800F07DFD25
:100430002FE110217C4800F078FD2AE120217A4844
:1004400000F073FD25E14021774800F06EFD20E1CA
:100450008021754800F069FD1BE14FF480717248FE
:1004600000F063FD15E14FF400716F4800F05DFD91
:100470000FE14FF480616C4800F057FD09E14FF443
:100480000061694800F051FD03E14FF48051664876
:1004900000F04BFDFDE04FF40051634800F045FDD6
:1004A000F7E04FF48041604800F03FFDF1E04FF489
:1004B00000415D4800F039FDEBE001215B4800F0B0
:1004C00034FDE6E00221594800F02FFDE1E004216F
:1004D000564800F02AFDDCE00821544800F025FDD4
:1004E000D7E01021514800F020FDD2E020214F48F4
:1004F00000F01BFDCDE040214C4800F016FDC8E0A7
:1005000080214A4800F011FDC3E04FF48071474854
:1005100000F00BFDBDE04FF40071444800F005FD14
:10052000B7E04FF48061414800F0FFFCB1E04FF4C8
:1005300000613E4800F0F9FCABE04FF480513B48CD
:1005400000F0F3FCA5E04FF40051384800F0EDFC5A
:100550009FE04FF48041354800F0E7FC99E04FF40C
:100560000041324800F0E1FC93E00121304800F006
:10057000DCFC8EE002212E4800F0D7FC89E004214B
:100580002B4800F0D2FC84E00821294800F0CDFC83
:100590007FE01021264800F0C8FC7AE020212448A2
:1005A00000F0C3FC75E04021214800F0BEFC70E083
:1005B00080211F4800F0B9FC6BE04FF480711C48AB
:1005C00000F0B3FC65E04FF40071194800F0ADFC99
:1005D0005FE04FF48061164800F0A7FC59E04FF44B
:1005E0000061134800F0A1FC53E04FF48051104823
:1005F00000F09BFC4DE04FF400510D4800F095FCDD
:1006000047E04FF480410A4800F08FFC41E04FF48E
:100610000041074800F089FC3BE000000008014071
:10062000000C01400010014000140140001801407E
:10063000001C01400121F94800F077FC29E002216B
:10064000F64800F072FC24E00421F44800F06DFC50
:100650001FE00821F14800F068FC1AE01021EF4883
:1006600000F063FC15E02021EC4800F05EFC10E097
:100670004021EA4800F059FC0BE08021E74800F0F7
:1006800054FC06E04FF48071E44800F04EFC00E0BA
:1006900000BF00BF10BD10B50446592C6FD2DFE873
:1006A00004F06E2D32373D43484D52575C62686FFF
:1006B000757B81878D92979CA1A6ABF0F5FBECEB47
:1006C000EAE9E8E7E6E5E4E3E2E1E0DFDEDDDCDB02
:1006D000DAD9D8D7D6D5D4D3D2D1D0CFCECDCCCBF2
:1006E000CAC9C8C7C6C5C4C3C2C1C0BFBEBDBCBBE2
:1006F000BAB9B8B7B6B5B4B3B2B1B0000121C84801
:1007000000F015FC29E20221C54800F010FC24E2AB
:100710004FF40061C24800F00AFC1EE24FF4805121
:10072000BF4800F004FC18E20121BE4800F0FFFBC6
:1007300013E20221BB4800F0FAFB0EE22021B94887
:1007400000F0F5FB09E24021B64800F0F0FB04E2BE
:100750008021B44800F0EBFBFFE14FF48071B14819
:1007600000F0E5FBF9E14FF40071AE4800F0DFFB6B
:10077000F3E14FF48061AB4800F0D9FBEDE1EBE130
:100780004FF40061A74800F0D2FBE6E14FF480513E
:10079000A44800F0CCFBE0E14FF40051A14800F088
:1007A000C6FBDAE14FF480419E4800F0C0FBD4E183
:1007B0004FF400419B4800F0BAFBCEE101219A487A
:1007C00000F0B5FBC9E10221974800F0B0FBC4E19D
:1007D0000421954800F0ABFBBFE10821924800F0EE
:1007E000A6FBBAE11021904800F0A1FBB5E1202161
:1007F0008D4800F09CFBB0E140218B4800F097FB56
:10080000ABE1A3E19DE197E191E18BE185E17FE13E
:1008100079E173E16CE165E15EE157E150E149E1C5
:1008200042E13BE135E12FE129E123E11DE117E15F
:1008300011E10BE104E1FDE0EAE0E3E0DCE0D5E01A
:10084000CEE0C7E0C1E0BBE0B5E0AFE0A9E0A3E0E7
:100850009DE097E090E089E082E07BE074E06DE06D
:1008600066E05FE059E053E04DE047E041E03BE007
:1008700035E02FE028E021E01AE013E00CE005E08D
:10088000FFE78021684800F052FB66E14FF4807179
:10089000654800F04CFB60E14FF40071624800F0E5
:1008A00046FB5AE14FF480615F4800F040FB54E1A1
:1008B0004FF400615C4800F03AFB4EE14FF4805188
:1008C000594800F034FB48E14FF40051564800F01D
:1008D0002EFB42E10121554800F029FB3DE10221B8
:1008E000524800F024FB38E10421504800F01FFB7F
:1008F00033E108214D4800F01AFB2EE110214B484E
:1009000000F015FB29E12021484800F010FB24E10C
:100910004021464800F00BFB1FE18021434800F0D6
:1009200006FB1AE14FF48071404800F000FB14E12F
:100930004FF400713D4800F0FAFA0EE14FF4806187
:100940003A4800F0F4FA08E14FF40061374800F04B
:10095000EEFA02E14FF48051344800F0E8FAFCE08E
:100960004FF40051314800F0E2FAF6E04FF48041D4
:100970002E4800F0DCFAF0E04FF400412B4800F084
:10098000D6FAEAE001212A4800F0D1FAE5E0022196
:10099000274800F0CCFAE0E00421254800F0C7FA2F
:1009A000DBE00821224800F0C2FAD6E010212048FE
:1009B00000F0BDFAD1E020211D4800F0B8FACCE0EB
:1009C00040211B4800F0B3FAC7E08021184800F02E
:1009D000AEFAC2E04FF48071154800F0A8FABCE00E
:1009E0004FF40071124800F0A2FAB6E04FF48061B3
:1009F0000F4800F09CFAB0E04FF400610C4800F0A2
:100A000096FAAAE04FF48051094800F090FAA4E069
:100A10004FF40051064800F08AFA9EE000200140A1
:100A200000080140000C014000100140001401408A
:100A3000001801404FF48041494800F078FA8CE0FA
:100A40004FF40041464800F072FA86E00121454823
:100A500000F06DFA81E00221424800F068FA7CE083
:100A60000421404800F063FA77E008213D4800F097
:100A70005EFA72E010213B4800F059FA6DE0202147
:100A8000384800F054FA68E04021364800F04FFA48
:100A900063E08021334800F04AFA5EE04FF4807151
:100AA000304800F044FA58E04FF400712D4800F04F
:100AB0003EFA52E04FF480612A4800F038FA4CE0E8
:100AC0004FF40061274800F032FA46E04FF48051BD
:100AD000244800F02CFA40E04FF40051214800F087
:100AE00026FA3AE04FF480411E4800F020FA34E044
:100AF0004FF400411B4800F01AFA2EE001211A4879
:100B000000F015FA29E00221174800F010FA24E05D
:100B10000421154800F00BFA1FE00821124800F0EC
:100B200006FA1AE01021104800F001FA15E0202121
:100B30000D4800F0FCF910E040210B4800F0F7F9F7
:100B40000BE08021084800F0F2F906E04FF48071D4
:100B5000054800F0ECF900E000BF00BF10BD000048
:100B600000180140001C014000200140002100E06D
:100B7000491C8142FCD370471FB54FF416500090BA
:100B80000020ADF80400ADF80600ADF80800ADF89F
:100B90000C000C20ADF80A006946534800F089FCAF
:100BA0000121514800F011FD6946504800F081FCD8
:100BB00001214E4800F009FD1FBD08B54FF401703A
:100BC000ADF8000003208DF8020018208DF8030016
:100BD0006946474800F0FCF84FF48160ADF800002A
:100BE00004208DF803006946414800F0F1F808BD83
:100BF00010B500F049FA4FF4803000F065FA00F0CB
:100C0000A2FA0446012C1ED1002000F0E2FA0020D6
:100C100000F0F1FAA00200F0E5FA4FF4E011200430
:100C200000F0BAFA012000F0C3FA00BF392000F04A
:100C30006EFA0028FAD0022000F0BDFA00BF00F0E2
:100C4000C3FA0828FBD10121480400F098FB0121D8
:100C5000042000F087FB012144F2040000F082FB35
:100C600010BD08B5002401214FF4FE7000F07AFB9E
:100C70004FF6FF70ADF8000003208DF80200102041
:100C80008DF8030069461A4800F0A2F86946194831
:100C900000F09EF86946184800F09AF8694617482F
:100CA00000F096F86946164800F092F86946154833
:100CB00000F08EF86946144800F08AF8FFF798FFB4
:100CC000FFF77BFFFFF758FF0DE0002409E0204607
:100CD000FFF77CFA0D48FFF749FF2046FFF7DBFCE2
:100CE000641C032CF3D3F0E70038014000440040BB
:100CF00000080140000C01400010014000140140B8
:100D000000180140001C01400020014000127A0040
:100D100010B50446CC48844208D10121042000F0DB
:100D20003BFB0021042000F037FB46E0C74884422B
:100D300008D10121082000F02FFB0021082000F03D
:100D40002BFB3AE0C248844208D10121102000F078
:100D500023FB0021102000F01FFB2EE0BD48844241
:100D600008D10121202000F017FB0021202000F0F5
:100D700013FB22E0B848844208D10121402000F052
:100D80000BFB0021402000F007FB16E0B348844233
:100D900008D10121802000F0FFFA0021802000F01E
:100DA000FBFA0AE0AE48844207D10121801500F029
:100DB000F3FA0021A01500F0EFFA10BD10B50121E3
:100DC000084600F0E9FA0021012000F0E5FA10BD24
:100DD0002DE9F041024600250026002000230024D2
:100DE000002791F803C00CF00F0591F803C00CF038
:100DF000100CBCF1000F03D091F802C04CEA0505BD
:100E000091F800C0BCF1000F31D0146800202BE035
:100E10004FF0010C0CFA00F3B1F800C00CEA030625
:100E20009E4220D183004FF00F0C0CFA03F7BC4315
:100E300005FA03FC4CEA040491F803C0BCF1280F46
:100E400006D14FF0010C0CFA00FCC2F814C00AE005
:100E500091F803C0BCF1480F05D14FF0010C0CFA1A
:100E600000FCC2F810C0401C0828D1D31460B1F8AF
:100E700000C0BCF1FF0F34DD546800202EE000F10B
:100E8000080C4FF0010808FA0CF3B1F800C00CEAA6
:100E900003069E4221D183004FF00F0C0CFA03F79A
:100EA000BC4305FA03FC4CEA040491F803C0BCF10E
:100EB000280F05D100F1080C08FA0CF8C2F81480CC
:100EC00091F803C0BCF1480F07D100F1080C4FF0B6
:100ED000010808FA0CF8C2F81080401C0828CED38C
:100EE0005460BDE8F0814FF6FF71018002218170EE
:100EF0000421C17070470246002093680B400BB17B
:100F0000012000E0002070470146886880B27047E9
:100F100002460020D3680B400BB1012000E0002006
:100F200070470146C86880B27047016170474161EF
:100F300070470AB1016100E041617047C1607047CC
:100F40004FF480320A4382618161826182698269E1
:100F5000704702460020434B18684FF680731840D4
:100F600040EA021008433F4B186070473E49C86191
:100F70007047F0B50A46002300240021002500F048
:100F80000046B6F1004F02D1364EF16901E0354E10
:100F90007168C0F3034583B200F44016B6F5401FF4
:100FA00008D121F070612F4E766826F070662D4FC3
:100FB0007E6012E000F48016B6F5801F06D103268D
:100FC00006FA05F4A14341F0706106E0460D3601D2
:100FD00003FA06F6B14341F0706122B1460D3601C5
:100FE00003FA06F6314300F00046B6F1004F02D195
:100FF0001C4EF16101E01B4E7160F0BD30B5002266
:101000008B071C0F0F2303FA04F2164B08338C10C6
:1010100053F824309343134C08348D1044F8253092
:1010200023468C1053F824308C07240F00FA04F464
:1010300023430C4C08348D1044F8253030BD0A4948
:10104000DC3108607047000000080140000C0140DE
:10105000001001400014014000180140001C014034
:10106000002001400000014000002042704700BF06
:10107000FEE700BFFEE700BFFEE700BFFEE77047E8
:101080007047704770470000DF48006840F001007B
:10109000DD49086008464068DC490840DA49486094
:1010A00008460068DA490840D749086008460068E1
:1010B00020F4802008600846406820F4FE00486064
:1010C0004FF41F0088607047CF49096821F48031D0
:1010D000CD4A11601146096821F480211160B0F5F4
:1010E000803F03D0B0F5802F0ED106E0C6490968D5
:1010F00041F48031C44A116007E0C349096841F4F2
:10110000A021C14A116000E000BF00BF704710B5C8
:1011100001460022002300204A11012A02D1BA4CC4
:10112000236806E0022A02D1B74C236A01E0B64CDC
:10113000636A01F01F02012494401C400CB101209D
:1011400000E0002010BD38B50020009000240025EC
:1011500000BF3120FFF7DBFF05460098401C0090E0
:101160000098B0F5A06F01D0002DF2D03120FFF72C
:10117000CEFF08B1012400E00024204638BD01461E
:101180000020A14A106820F0F80040EAC100106079
:101190007047A04908607047024600209A4B586883
:1011A00020F47C1042EA01031843974B58607047C3
:1011B00098490866704701460020934A506820F01D
:1011C00003000843506070478F48406800F00C00EF
:1011D0007047014600208C4A506820F0F000084318
:1011E0005060704701460020874A506820F4E06054
:1011F00008435060704701460020834A506820F43D
:10120000605040EAC1005060704729B17E4A527A6E
:1012100002437D4B5A7204E07B4A527A82437A4BF6
:101220005A7270477B49D8310860704701460020E8
:10123000754A506820F440400843506070470021D0
:10124000714A20321170704A82F82010012802D0B1
:1012500004280AD104E001216B4A2032117005E014
:101260000521694A2032117000E000BF00BF7047BD
:101270006949086070476449096A0143624A11621A
:101280007047654944390860704730B50021002235
:10129000002400235C4D6D6805F00C0121B1042988
:1012A00005D0082923D105E05C4D056022E05B4DA7
:1012B00005601FE0544D6D6805F47012524D6D6865
:1012C00005F48034022505EB92421CB9544D554378
:1012D00005600BE04C4D6D6805F400351DB1504DB7
:1012E0005543056002E04D4D5543056002E04B4D0E
:1012F000056000BF00BF444D6D6805F0F0010909AD
:10130000484D6B5C0568DD4045603F4D6D6805F4F8
:10131000E061090A434D6B5C4568DD4085603A4DEC
:101320006D6805F46051C90A3E4D6B5C4568DD404F
:10133000C560354D6D6805F44041890B3A4D6B5CD5
:10134000C568B5FBF3F5056130BD29B12E4A526978
:1013500002432D4B5A6104E02B4A526982432A4BC7
:101360005A61704729B1284A92690243264B9A6113
:1013700004E0254A92698243234B9A61704729B160
:10138000214AD2690243204BDA6104E01E4AD26945
:1013900082431D4BDA61704729B11B4AD268024370
:1013A000194BDA6004E0184AD2688243164BDA60BF
:1013B000704729B1144A12690243134B1A6104E0C1
:1013C000114A12698243104B1A6170471249403921
:1013D000086070470F49C86470470B49C87170476F
:1013E0000948406A40F080700749486270470146EA
:1013F0000020054A92680A400AB1012000E000205E
:101400007047014988727047001002400000FFF8E1
:10141000FFFFF6FE000042428004424200127A00C2
:1014200000093D00000000201000002010B5044617
:10143000FB48844209D101218803FFF7ADFF002159
:101440004FF48040FFF7A8FF32E0F648844209D10C
:1014500001214804FFF7ADFF00214FF40030FFF7F2
:10146000A8FF25E0F048844209D101218804FFF754
:10147000A0FF00214FF48020FFF79BFF18E0EB480E
:10148000844209D10121C804FFF793FF00214FF4E2
:101490000020FFF78EFF0BE0E548844208D10121D0
:1014A0000805FFF786FF00214FF48010FFF781FF4A
:1014B00010BD2DE9F04786B005460E460024A24631
:1014C00000BFA1460027B08900B100BF2F462C8A7B
:1014D0004CF6FF700440F08804432C82AC894EF631
:1014E000F3100440B08831890843718908430443EC
:1014F000AC81AC8A4FF6FF400440B0890443AC8213
:1015000001A8FFF7C2FEC648874202D1DDF810A04D
:1015100001E0DDF80CA0A88900F4004040B10AEB1E
:10152000CA0000EB0A1031684900B0FBF1F807E08F
:101530000AEBCA0000EB0A1031688900B0FBF1F831
:101540006420B8FBF0F004012009642101FB10893C
:10155000A88900F4004040B1322000EBC900B0FB84
:10156000F1F000F00700044308E0322000EB09101E
:101570006421B0FBF1F000F00F0004432C8106B0B1
:10158000BDE8F0874FF41651016000218180C180D1
:1015900001810C21418100218181704710B50246F3
:1015A0000020108A4FF2FF0318400B884C88234319
:1015B0008C882343CC8823431843108210BD00211C
:1015C000018041808180C180704721B1828942F4CD
:1015D0000052828104E082894DF6FF731A408281B5
:1015E0007047F0B50346002400260025002040F691
:1015F0006A17B94200D100BF1846C1F3421401F086
:101600001F06012707FA06F5012C01D10C3004E072
:10161000022C01D1103000E014301AB107682F43BA
:10162000076002E00768AF430760F0BD1AB1838A24
:101630000B43838202E0838A8B4383827047028A52
:101640004FF6F0731A400282028A0A430282704700
:1016500082894FF2FF731A40828182890A43828114
:10166000704721B1828942F00202828104E08289BE
:101670004FF6FD731A4082817047028A4FF6DF737E
:101680001A400282028A0A430282704721B1028A0A
:1016900042F48042028204E0028A4BF6FF731A4051
:1016A00002827047C1F30802828070470146888831
:1016B000C0F308007047818941F0010181817047C2
:1016C000028BD2B20283028B42EA0122028370476C
:1016D000028B02F47F420283028B0A43028370472B
:1016E00021B1828A42F02002828204E0828A4FF68F
:1016F000DF731A408282704721B1828A42F0100261
:10170000828204E0828A4FF6EF731A408282704729
:1017100021B1828A42F00802828204E0828A4FF676
:10172000F7731A408282704721B1828942F40042E5
:10173000828103E08289C2F30E028281704721B167
:10174000828A42F40062828204E0828A4FF2FF734E
:101750001A4082827047828A4FF6FB731A40828257
:10176000828A0A438282704721B1828A42F0020251
:10177000828204E0828A4FF6FD731A4082827047AB
:1017800002460020B1F5007F00D100BF13880B4056
:101790000BB1012000E00020704701F40072B2F5A7
:1017A000007F00D100BFCA430280704770B5024677
:1017B000002400230025002040F66A16B14200D123
:1017C00000BFC1F3421501F01F03012606FA03F31F
:1017D000012D02D19689334006E0022D02D1168AEE
:1017E000334001E0968A33400C12012606FA04F4D5
:1017F0001688344013B10CB1012000E0002070BD08
:1018000010B50022002340F66A14A14200D100BFA7
:101810000A1201249440A3B2DC43048010BD0000EE
:10182000003801400044004000480040004C0040A7
:10183000005000400CB50020019000906C480068FA
:1018400040F480306A49086000BF6948006800F4CD
:10185000003000900198401C0190009818B9019840
:10186000B0F5A06FF1D16248006800F4003010B10B
:101870000120009001E0002000900098012843D151
:101880005C48006840F010005A490860084600684B
:1018900020F0030008600846006840F0020008607D
:1018A00053484068524948600846406848600846C6
:1018B000406840F4806048600846406820F47C102E
:1018C00048600846406840F4E810486008460068F0
:1018D00040F08070086000BF4548006800F000706C
:1018E0000028F9D04248406820F003004049486091
:1018F0000846406840F00200486000BF3C4840682D
:1019000000F00C000828F9D10CBD10B5FFF792FFCC
:1019100010BD10B53648006840F001003449086039
:101920000846406834490840314948600846006824
:10193000324908402E4908600846006820F480209B
:1019400008600846406820F4FE0048604FF41F001D
:101950008860FFF7DAFF4FF000602949086010BD8A
:1019600010B5002100200022214B5B6803F00C0120
:1019700021B1042906D0082928D107E0214B224CA7
:10198000236027E01F4B204C236023E0184B5B684B
:1019900003F47010164B5B6803F48032022303EBF0
:1019A000904022B9194B4343174C23600DE0104B74
:1019B0005B6803F4003323B1144B4343124C2360A0
:1019C00003E0104B4343104C236003E00D4B0E4CDF
:1019D000236000BF00BF064B5B68C3F303130C4CCE
:1019E000E15C094B1B68CB40074C236010BD000035
:1019F00000100240002002400000FFF8FFFFF6FE4A
:101A000008ED00E000127A001400002000093D00FB
:101A1000180000200948804709480047FEE7FEE714
:101A2000FEE7FEE7FEE7FEE7FEE7FEE7FEE7FEE78E
:101A300004480549054A064B704700001319000881
:101A4000310100088800002088060020880200205C
:101A500088020020704770477047754600F028F8EC
:101A6000AE4605006946534620F00700854618B08B
:101A700020B5FFF7DDFFBDE820404FF000064FF036
:101A800000074FF000084FF0000B21F00701AC46B3
:101A9000ACE8C009ACE8C009ACE8C009ACE8C009D2
:101AA0008D4670470446AFF300802046FEF787FB63
:101AB000004870472800002001491820ABBEFEE70F
:101AC0002600020070470000E81A0008000000200D
:101AD000280000006C010008101B000828000020EE
:101AE00060060000880100080000000001020304F5
:101AF00001020304060708090204060800A24A04BA
:101B000000000000000000000102030406070809AD
:0400000508000131BD
:00000001FF
